{
    "_format": "hh-sol-artifact-1",
    "contractName": "PayItForward",
    "sourceName": "contracts/PayItForward.sol",
    "abi": [
        {
            "inputs": [],
            "stateMutability": "payable",
            "type": "constructor"
        },
        {
            "anonymous": false,
            "inputs": [
                {
                    "indexed": false,
                    "internalType": "address",
                    "name": "_from",
                    "type": "address"
                },
                {
                    "indexed": false,
                    "internalType": "address",
                    "name": "_to",
                    "type": "address"
                },
                {
                    "indexed": false,
                    "internalType": "uint256",
                    "name": "_amount",
                    "type": "uint256"
                }
            ],
            "name": "paidForward",
            "type": "event"
        },
        {
            "inputs": [],
            "name": "lastDoner",
            "outputs": [
                {
                    "internalType": "address",
                    "name": "",
                    "type": "address"
                }
            ],
            "stateMutability": "view",
            "type": "function"
        },
        {
            "inputs": [],
            "name": "payItForward",
            "outputs": [],
            "stateMutability": "payable",
            "type": "function"
        }
    ],
    "bytecode": "0x6080604052336000806101000a81548173ffffffffffffffffffffffffffffffffffffffff021916908373ffffffffffffffffffffffffffffffffffffffff16021790555033600160006101000a81548173ffffffffffffffffffffffffffffffffffffffff021916908373ffffffffffffffffffffffffffffffffffffffff1602179055506104ad806100946000396000f3fe6080604052600436106100295760003560e01c80635391f6371461002e578063f985777114610038575b600080fd5b610036610063565b005b34801561004457600080fd5b5061004d6100f6565b60405161005a919061027a565b60405180910390f35b655af3107a400034116100ab576040517f08c379a00000000000000000000000000000000000000000000000000000000081526004016100a2906102f2565b60405180910390fd5b6100b361011c565b33600160006101000a81548173ffffffffffffffffffffffffffffffffffffffff021916908373ffffffffffffffffffffffffffffffffffffffff160217905550565b600160009054906101000a900473ffffffffffffffffffffffffffffffffffffffff1681565b6000344761012a919061034b565b905060003373ffffffffffffffffffffffffffffffffffffffff1682604051610152906103b0565b60006040518083038185875af1925050503d806000811461018f576040519150601f19603f3d011682016040523d82523d6000602084013e610194565b606091505b50509050806101d8576040517f08c379a00000000000000000000000000000000000000000000000000000000081526004016101cf90610411565b60405180910390fd5b7ff6e45ad4f93cb5f90b4d0ed852852adb6d16b86156c126417bdcce685a6f4565600160009054906101000a900473ffffffffffffffffffffffffffffffffffffffff16338460405161022d93929190610440565b60405180910390a15050565b600073ffffffffffffffffffffffffffffffffffffffff82169050919050565b600061026482610239565b9050919050565b61027481610259565b82525050565b600060208201905061028f600083018461026b565b92915050565b600082825260208201905092915050565b7f4e6f7420656e6f7567682046756e64732073656e740000000000000000000000600082015250565b60006102dc601583610295565b91506102e7826102a6565b602082019050919050565b6000602082019050818103600083015261030b816102cf565b9050919050565b6000819050919050565b7f4e487b7100000000000000000000000000000000000000000000000000000000600052601160045260246000fd5b600061035682610312565b915061036183610312565b9250828210156103745761037361031c565b5b828203905092915050565b600081905092915050565b50565b600061039a60008361037f565b91506103a58261038a565b600082019050919050565b60006103bb8261038d565b9150819050919050565b7f4661696c656420746f206465706f736974000000000000000000000000000000600082015250565b60006103fb601183610295565b9150610406826103c5565b602082019050919050565b6000602082019050818103600083015261042a816103ee565b9050919050565b61043a81610312565b82525050565b6000606082019050610455600083018661026b565b610462602083018561026b565b61046f6040830184610431565b94935050505056fea2646970667358221220e0145e0d899365d5eb7aae1e388e967242d85efa4a29a6576cf31ac46d27432164736f6c634300080a0033",
    "linkReferences": {},
    "deployedLinkReferences": {}
}